{
  "contractName": "SupplyChain",
  "abi": [
    {
      "constant": true,
      "inputs": [],
      "name": "ownerAddress",
      "outputs": [
        {
          "internalType": "address",
          "name": "",
          "type": "address"
        }
      ],
      "payable": false,
      "stateMutability": "view",
      "type": "function"
    },
    {
      "constant": true,
      "inputs": [
        {
          "internalType": "address",
          "name": "account",
          "type": "address"
        }
      ],
      "name": "getRole",
      "outputs": [
        {
          "internalType": "string",
          "name": "",
          "type": "string"
        }
      ],
      "payable": false,
      "stateMutability": "view",
      "type": "function"
    },
    {
      "constant": false,
      "inputs": [
        {
          "internalType": "address",
          "name": "account",
          "type": "address"
        },
        {
          "internalType": "string",
          "name": "name",
          "type": "string"
        }
      ],
      "name": "addFarmer",
      "outputs": [],
      "payable": false,
      "stateMutability": "nonpayable",
      "type": "function"
    },
    {
      "constant": true,
      "inputs": [
        {
          "internalType": "address",
          "name": "account",
          "type": "address"
        }
      ],
      "name": "getFarmer",
      "outputs": [
        {
          "internalType": "string",
          "name": "name",
          "type": "string"
        }
      ],
      "payable": false,
      "stateMutability": "view",
      "type": "function"
    },
    {
      "constant": false,
      "inputs": [
        {
          "internalType": "address",
          "name": "account",
          "type": "address"
        },
        {
          "internalType": "string",
          "name": "name",
          "type": "string"
        }
      ],
      "name": "addDistributors",
      "outputs": [],
      "payable": false,
      "stateMutability": "nonpayable",
      "type": "function"
    },
    {
      "constant": false,
      "inputs": [
        {
          "internalType": "string",
          "name": "sku",
          "type": "string"
        },
        {
          "internalType": "uint256",
          "name": "price",
          "type": "uint256"
        },
        {
          "internalType": "string",
          "name": "productName",
          "type": "string"
        }
      ],
      "name": "createProducts",
      "outputs": [],
      "payable": false,
      "stateMutability": "nonpayable",
      "type": "function"
    }
  ],
  "bytecode": "0x608060405234801561001057600080fd5b50610ae2806100206000396000f3fe608060405234801561001057600080fd5b50600436106100625760003560e01c80630b2f017514610067578063442767331461011d57806389671bf0146101b85780638f84aa091461026c578063e7609c1614610290578063f8310e5c146102b6575b600080fd5b61011b6004803603604081101561007d57600080fd5b6001600160a01b038235169190810190604081016020820135600160201b8111156100a757600080fd5b8201836020820111156100b957600080fd5b803590602001918460018302840111600160201b831117156100da57600080fd5b91908080601f0160208091040260200160405190810160405280939291908181526020018383808284376000920191909152509295506103e7945050505050565b005b6101436004803603602081101561013357600080fd5b50356001600160a01b03166104a6565b6040805160208082528351818301528351919283929083019185019080838360005b8381101561017d578181015183820152602001610165565b50505050905090810190601f1680156101aa5780820380516001836020036101000a031916815260200191505b509250505060405180910390f35b61011b600480360360408110156101ce57600080fd5b6001600160a01b038235169190810190604081016020820135600160201b8111156101f857600080fd5b82018360208201111561020a57600080fd5b803590602001918460018302840111600160201b8311171561022b57600080fd5b91908080601f0160208091040260200160405190810160405280939291908181526020018383808284376000920191909152509295506105a9945050505050565b610274610646565b604080516001600160a01b039092168252519081900360200190f35b610143600480360360208110156102a657600080fd5b50356001600160a01b031661065e565b61011b600480360360608110156102cc57600080fd5b810190602081018135600160201b8111156102e657600080fd5b8201836020820111156102f857600080fd5b803590602001918460018302840111600160201b8311171561031957600080fd5b91908080601f01602080910402602001604051908101604052809392919081815260200183838082843760009201919091525092958435959094909350604081019250602001359050600160201b81111561037357600080fd5b82018360208201111561038557600080fd5b803590602001918460018302840111600160201b831117156103a657600080fd5b91908080601f01602080910402602001604051908101604052809392919081815260200183838082843760009201919091525092955061075f945050505050565b3373435e41fa208cc37123f274b07f7e26b75262de4b14156104a2576001600160a01b03821660009081526001602052604090206002015460ff166104a25761042e6109aa565b6020818101838152600160408085018290526001600160a01b03878116808752600090815283865291909120855181546001600160a01b03191692169190911781559151805185946104849385019201906109d6565b50604091909101516002909101805460ff1916911515919091179055505b5050565b60606001600160a01b03821673435e41fa208cc37123f274b07f7e26b75262de4b14156104ef575060408051808201909152600581526420b236b4b760d91b60208201526105a4565b6001600160a01b03821660009081526020819052604090206002015460ff161561053657506040805180820190915260068152652330b936b2b960d11b60208201526105a4565b6001600160a01b03821660009081526001602052604090206002015460ff1615610582575060408051808201909152600b81526a2234b9ba3934b13aba37b960a91b60208201526105a4565b50604080518082019091526009815268416e6f6e796d6f757360b81b60208201525b919050565b3373435e41fa208cc37123f274b07f7e26b75262de4b14156104a2576001600160a01b03821660009081526020819052604090206002015460ff166104a2576105f06109aa565b6020818101838152600160408085018290526001600160a01b03878116808752600090815280865291909120855181546001600160a01b03191692169190911781559151805185946104849385019201906109d6565b73435e41fa208cc37123f274b07f7e26b75262de4b81565b60603373435e41fa208cc37123f274b07f7e26b75262de4b141561074b576001600160a01b03821660009081526020819052604090206002015460ff1661074b576001600160a01b03821660009081526020818152604091829020600190810180548451600293821615610100026000190190911692909204601f81018490048402830184019094528382529092909183018282801561073f5780601f106107145761010080835404028352916020019161073f565b820191906000526020600020905b81548152906001019060200180831161072257829003601f168201915b505050505090506105a4565b505060408051602081019091526000815290565b6107676109aa565b3360009081526020818152604091829020825160608101845281546001600160a01b03168152600180830180548651600261010094831615949094026000190190911692909204601f810186900486028301860190965285825291949293858101939192919083018282801561081e5780601f106107f35761010080835404028352916020019161081e565b820191906000526020600020905b81548152906001019060200180831161080157829003601f168201915b50505091835250506002919091015460ff1615156020909101526040810151909150156109a45761084d610a54565b848152606081018490526080810183905281516001600160a01b039081166040808401919091528351909116602080840191909152600160c0840152905186518392600292899290918291908401908083835b602083106108bf5780518252601f1990920191602091820191016108a0565b51815160209384036101000a6000190180199092169116179052920194855250604051938490038101909320845180519194610900945085935001906109d6565b506020828101516001830180546001600160a01b039283166001600160a01b0319918216179091556040850151600285018054919093169116179055606083015160038301556080830151805161095d92600485019201906109d6565b5060a082015160058201805460ff1916600183600381111561097b57fe5b021790555060c09190910151600590910180549115156101000261ff0019909216919091179055505b50505050565b604051806060016040528060006001600160a01b03168152602001606081526020016000151581525090565b828054600181600116156101000203166002900490600052602060002090601f016020900481019282601f10610a1757805160ff1916838001178555610a44565b82800160010185558215610a44579182015b82811115610a44578251825591602001919060010190610a29565b50610a50929150610a90565b5090565b6040805160e081018252606080825260006020830181905292820183905280820183905260808201529060a08201908152600060209091015290565b610aaa91905b80821115610a505760008155600101610a96565b9056fea265627a7a723158207ba17ab54c2e9741a56c4f55db4f24947f2720c57fdd000ec327e4e06fc29b1364736f6c63430005100032",
  "source": "pragma solidity >=0.4.24;\r\n\r\nimport \"./Models.sol\";\r\n\r\ncontract SupplyChain {\r\n    mapping(address => Models.Farmer) farmers;\r\n    mapping(address => Models.Distributor) distributors;\r\n    mapping(string => Models.Product) products;\r\n\r\n    address public constant ownerAddress =\r\n        0x435E41FA208CC37123f274b07F7E26b75262de4B;\r\n\r\n    function getRole(address account) public view returns (string memory) {\r\n        if (account == ownerAddress) return \"Admin\";\r\n        if (farmers[account].exist) return \"Farmer\";\r\n        if (distributors[account].exist) return \"Distributor\";\r\n        return \"Anonymous\";\r\n    }\r\n\r\n    function addFarmer(address account, string memory name) public {\r\n        if (msg.sender == ownerAddress) {\r\n            if (!farmers[account].exist) {\r\n                Models.Farmer memory newEntry;\r\n                newEntry.name = name;\r\n                newEntry.exist = true;\r\n                newEntry.ownerAddress = account;\r\n                farmers[account] = newEntry;\r\n            }\r\n        }\r\n    }\r\n\r\n    function getFarmer(address account) public view returns(string memory name){\r\n        if (msg.sender == ownerAddress) {\r\n            if (!farmers[account].exist) {\r\n                return farmers[account].name;\r\n            }\r\n        }\r\n        return \"\";\r\n    }\r\n\r\n    function addDistributors(address account, string memory name) public {\r\n        if (msg.sender == ownerAddress) {\r\n            if (!distributors[account].exist) {\r\n                Models.Distributor memory newEntry;\r\n                newEntry.name = name;\r\n                newEntry.exist = true;\r\n                newEntry.ownerAddress = account;\r\n                distributors[account] = newEntry;\r\n            }\r\n        }\r\n    }\r\n\r\n    function createProducts(\r\n        string memory sku,\r\n        uint256 price,\r\n        string memory productName\r\n    ) public {\r\n        Models.Farmer memory farmer;\r\n        farmer = farmers[msg.sender];\r\n        if (farmer.exist) {\r\n            Models.Product memory product;\r\n            product.sku = sku;\r\n            product.price = price;\r\n            product.productName = productName;\r\n            product.createdBy = farmer.ownerAddress;\r\n            product.currentOwner = farmer.ownerAddress;\r\n            product.exist = true;\r\n            products[product.sku] = product;\r\n        }\r\n    }\r\n}\r\n",
  "sourcePath": "E:\\Projects\\SupplyChain\\contracts\\SupplyChain.sol",
  "compiler": {
    "name": "solc",
    "version": "0.5.16+commit.9c3226ce.Emscripten.clang"
  },
  "schemaVersion": "3.4.6",
  "updatedAt": "2022-03-17T09:46:48.380Z",
  "devdoc": {
    "methods": {}
  },
  "userdoc": {
    "methods": {}
  }
}