{
  "contractName": "SupplyChain",
  "abi": [
    {
      "anonymous": false,
      "inputs": [
        {
          "indexed": false,
          "internalType": "string",
          "name": "sku",
          "type": "string"
        },
        {
          "indexed": false,
          "internalType": "string",
          "name": "sku2",
          "type": "string"
        }
      ],
      "name": "DebugEvent",
      "type": "event"
    },
    {
      "anonymous": false,
      "inputs": [
        {
          "indexed": false,
          "internalType": "string",
          "name": "sku",
          "type": "string"
        },
        {
          "indexed": false,
          "internalType": "string",
          "name": "sku2",
          "type": "string"
        }
      ],
      "name": "EqualEvent",
      "type": "event"
    },
    {
      "anonymous": false,
      "inputs": [
        {
          "indexed": true,
          "internalType": "string",
          "name": "name",
          "type": "string"
        }
      ],
      "name": "FarmerAdded",
      "type": "event"
    },
    {
      "constant": true,
      "inputs": [
        {
          "internalType": "address",
          "name": "",
          "type": "address"
        }
      ],
      "name": "distributors",
      "outputs": [
        {
          "internalType": "address",
          "name": "ownerAddress",
          "type": "address"
        },
        {
          "internalType": "string",
          "name": "name",
          "type": "string"
        },
        {
          "internalType": "bool",
          "name": "exist",
          "type": "bool"
        }
      ],
      "payable": false,
      "stateMutability": "view",
      "type": "function"
    },
    {
      "constant": true,
      "inputs": [
        {
          "internalType": "uint256",
          "name": "",
          "type": "uint256"
        }
      ],
      "name": "distributorsKey",
      "outputs": [
        {
          "internalType": "address",
          "name": "",
          "type": "address"
        }
      ],
      "payable": false,
      "stateMutability": "view",
      "type": "function"
    },
    {
      "constant": true,
      "inputs": [
        {
          "internalType": "address",
          "name": "",
          "type": "address"
        }
      ],
      "name": "farmers",
      "outputs": [
        {
          "internalType": "address",
          "name": "ownerAddress",
          "type": "address"
        },
        {
          "internalType": "string",
          "name": "name",
          "type": "string"
        },
        {
          "internalType": "bool",
          "name": "exist",
          "type": "bool"
        }
      ],
      "payable": false,
      "stateMutability": "view",
      "type": "function"
    },
    {
      "constant": true,
      "inputs": [
        {
          "internalType": "uint256",
          "name": "",
          "type": "uint256"
        }
      ],
      "name": "farmersKey",
      "outputs": [
        {
          "internalType": "address",
          "name": "",
          "type": "address"
        }
      ],
      "payable": false,
      "stateMutability": "view",
      "type": "function"
    },
    {
      "constant": true,
      "inputs": [
        {
          "internalType": "string",
          "name": "",
          "type": "string"
        },
        {
          "internalType": "uint256",
          "name": "",
          "type": "uint256"
        }
      ],
      "name": "histories",
      "outputs": [
        {
          "internalType": "address",
          "name": "transferFrom",
          "type": "address"
        },
        {
          "internalType": "address",
          "name": "transferTo",
          "type": "address"
        },
        {
          "internalType": "uint256",
          "name": "blocknumber",
          "type": "uint256"
        },
        {
          "internalType": "enum Models.Action",
          "name": "action",
          "type": "uint8"
        },
        {
          "internalType": "uint256",
          "name": "timestamp",
          "type": "uint256"
        }
      ],
      "payable": false,
      "stateMutability": "view",
      "type": "function"
    },
    {
      "constant": true,
      "inputs": [],
      "name": "ownerAddress",
      "outputs": [
        {
          "internalType": "address",
          "name": "",
          "type": "address"
        }
      ],
      "payable": false,
      "stateMutability": "view",
      "type": "function"
    },
    {
      "constant": true,
      "inputs": [
        {
          "internalType": "address",
          "name": "",
          "type": "address"
        },
        {
          "internalType": "uint256",
          "name": "",
          "type": "uint256"
        }
      ],
      "name": "productOwners",
      "outputs": [
        {
          "internalType": "string",
          "name": "",
          "type": "string"
        }
      ],
      "payable": false,
      "stateMutability": "view",
      "type": "function"
    },
    {
      "constant": true,
      "inputs": [
        {
          "internalType": "string",
          "name": "",
          "type": "string"
        }
      ],
      "name": "products",
      "outputs": [
        {
          "internalType": "string",
          "name": "sku",
          "type": "string"
        },
        {
          "internalType": "address",
          "name": "currentOwner",
          "type": "address"
        },
        {
          "internalType": "address",
          "name": "createdBy",
          "type": "address"
        },
        {
          "internalType": "uint256",
          "name": "price",
          "type": "uint256"
        },
        {
          "internalType": "string",
          "name": "productName",
          "type": "string"
        },
        {
          "internalType": "bool",
          "name": "exist",
          "type": "bool"
        }
      ],
      "payable": false,
      "stateMutability": "view",
      "type": "function"
    },
    {
      "constant": true,
      "inputs": [
        {
          "internalType": "address",
          "name": "account",
          "type": "address"
        }
      ],
      "name": "getRole",
      "outputs": [
        {
          "internalType": "string",
          "name": "",
          "type": "string"
        }
      ],
      "payable": false,
      "stateMutability": "view",
      "type": "function"
    },
    {
      "constant": false,
      "inputs": [
        {
          "internalType": "address",
          "name": "account",
          "type": "address"
        },
        {
          "internalType": "string",
          "name": "name",
          "type": "string"
        }
      ],
      "name": "addFarmer",
      "outputs": [],
      "payable": false,
      "stateMutability": "nonpayable",
      "type": "function"
    },
    {
      "constant": true,
      "inputs": [],
      "name": "getFarmers",
      "outputs": [
        {
          "components": [
            {
              "internalType": "address",
              "name": "ownerAddress",
              "type": "address"
            },
            {
              "internalType": "string",
              "name": "name",
              "type": "string"
            },
            {
              "internalType": "bool",
              "name": "exist",
              "type": "bool"
            }
          ],
          "internalType": "struct Models.Farmer[]",
          "name": "",
          "type": "tuple[]"
        }
      ],
      "payable": false,
      "stateMutability": "view",
      "type": "function"
    },
    {
      "constant": true,
      "inputs": [
        {
          "internalType": "address",
          "name": "account",
          "type": "address"
        }
      ],
      "name": "getFarmer",
      "outputs": [
        {
          "internalType": "string",
          "name": "name",
          "type": "string"
        }
      ],
      "payable": false,
      "stateMutability": "view",
      "type": "function"
    },
    {
      "constant": false,
      "inputs": [
        {
          "internalType": "address",
          "name": "account",
          "type": "address"
        },
        {
          "internalType": "string",
          "name": "name",
          "type": "string"
        }
      ],
      "name": "addDistributor",
      "outputs": [],
      "payable": false,
      "stateMutability": "nonpayable",
      "type": "function"
    },
    {
      "constant": true,
      "inputs": [],
      "name": "getDistributors",
      "outputs": [
        {
          "components": [
            {
              "internalType": "address",
              "name": "ownerAddress",
              "type": "address"
            },
            {
              "internalType": "string",
              "name": "name",
              "type": "string"
            },
            {
              "internalType": "bool",
              "name": "exist",
              "type": "bool"
            }
          ],
          "internalType": "struct Models.Distributor[]",
          "name": "",
          "type": "tuple[]"
        }
      ],
      "payable": false,
      "stateMutability": "view",
      "type": "function"
    },
    {
      "constant": true,
      "inputs": [
        {
          "internalType": "address",
          "name": "account",
          "type": "address"
        }
      ],
      "name": "getDistributor",
      "outputs": [
        {
          "internalType": "string",
          "name": "name",
          "type": "string"
        }
      ],
      "payable": false,
      "stateMutability": "view",
      "type": "function"
    },
    {
      "constant": true,
      "inputs": [],
      "name": "getOwnerProducts",
      "outputs": [
        {
          "components": [
            {
              "internalType": "string",
              "name": "sku",
              "type": "string"
            },
            {
              "internalType": "address",
              "name": "currentOwner",
              "type": "address"
            },
            {
              "internalType": "address",
              "name": "createdBy",
              "type": "address"
            },
            {
              "internalType": "uint256",
              "name": "price",
              "type": "uint256"
            },
            {
              "internalType": "string",
              "name": "productName",
              "type": "string"
            },
            {
              "internalType": "bool",
              "name": "exist",
              "type": "bool"
            }
          ],
          "internalType": "struct Models.Product[]",
          "name": "",
          "type": "tuple[]"
        }
      ],
      "payable": false,
      "stateMutability": "view",
      "type": "function"
    },
    {
      "constant": true,
      "inputs": [
        {
          "internalType": "string",
          "name": "sku",
          "type": "string"
        }
      ],
      "name": "getProduct",
      "outputs": [
        {
          "components": [
            {
              "internalType": "string",
              "name": "sku",
              "type": "string"
            },
            {
              "internalType": "address",
              "name": "currentOwner",
              "type": "address"
            },
            {
              "internalType": "address",
              "name": "createdBy",
              "type": "address"
            },
            {
              "internalType": "uint256",
              "name": "price",
              "type": "uint256"
            },
            {
              "internalType": "string",
              "name": "productName",
              "type": "string"
            },
            {
              "internalType": "bool",
              "name": "exist",
              "type": "bool"
            }
          ],
          "internalType": "struct Models.Product",
          "name": "",
          "type": "tuple"
        }
      ],
      "payable": false,
      "stateMutability": "view",
      "type": "function"
    },
    {
      "constant": false,
      "inputs": [
        {
          "internalType": "string",
          "name": "sku",
          "type": "string"
        },
        {
          "internalType": "uint256",
          "name": "price",
          "type": "uint256"
        },
        {
          "internalType": "string",
          "name": "productName",
          "type": "string"
        }
      ],
      "name": "addProduct",
      "outputs": [],
      "payable": false,
      "stateMutability": "nonpayable",
      "type": "function"
    },
    {
      "constant": false,
      "inputs": [
        {
          "internalType": "string",
          "name": "sku",
          "type": "string"
        },
        {
          "internalType": "address",
          "name": "toAddress",
          "type": "address"
        }
      ],
      "name": "transferProduct",
      "outputs": [],
      "payable": false,
      "stateMutability": "nonpayable",
      "type": "function"
    },
    {
      "constant": true,
      "inputs": [
        {
          "internalType": "string",
          "name": "sku",
          "type": "string"
        }
      ],
      "name": "getItemHistory",
      "outputs": [
        {
          "components": [
            {
              "internalType": "address",
              "name": "transferFrom",
              "type": "address"
            },
            {
              "internalType": "address",
              "name": "transferTo",
              "type": "address"
            },
            {
              "internalType": "uint256",
              "name": "blocknumber",
              "type": "uint256"
            },
            {
              "internalType": "enum Models.Action",
              "name": "action",
              "type": "uint8"
            },
            {
              "internalType": "uint256",
              "name": "timestamp",
              "type": "uint256"
            }
          ],
          "internalType": "struct Models.ItemHistory[]",
          "name": "",
          "type": "tuple[]"
        }
      ],
      "payable": false,
      "stateMutability": "view",
      "type": "function"
    }
  ],
  "bytecode": "0x608060405234801561001057600080fd5b506126d3806100206000396000f3fe608060405234801561001057600080fd5b506004361061012c5760003560e01c806389671bf0116100ad578063993df8c611610071578063993df8c6146102ba578063b00ce989146102cd578063cc642784146102e0578063d989f5f2146102f3578063e7609c16146103065761012c565b806389671bf0146102645780638f29695a146102775780638f84aa091461028a57806390afcb9d1461029257806390e87986146102a55761012c565b806344276733116100f457806344276733146101cb5780635f4742dd146101eb57806368111cce1461020f5780636878a7611461022f578063789f8d401461024f5761012c565b80630186a423146101315780630db8a8f81461015f5780631214d2fd1461017f5780633873ab2414610194578063401b2168146101a9575b600080fd5b61014461013f366004611f4f565b610319565b604051610156969594939291906124f8565b60405180910390f35b61017261016d366004611f4f565b610480565b60405161015691906124c5565b61019261018d366004611ecd565b610560565b005b61019c61066e565b60405161015691906124d6565b6101bc6101b7366004611ea7565b61095c565b60405161015693929190612474565b6101de6101d9366004611ea7565b610a16565b60405161015691906124e7565b6101fe6101f9366004612047565b610b17565b604051610156959493929190612428565b61022261021d366004611f4f565b610b81565b6040516101569190612583565b61024261023d36600461207d565b610d22565b604051610156919061241a565b610257610d49565b60405161015691906124b4565b610192610272366004611ecd565b610eb4565b610192610285366004611fcb565b610fc5565b6102426112cb565b6101926102a0366004611f84565b6112e3565b6102ad61180d565b60405161015691906124a3565b6101de6102c8366004611ea7565b611973565b6102426102db36600461207d565b611a75565b6101bc6102ee366004611ea7565b611a82565b6101de610301366004611f1f565b611b00565b6101de610314366004611ea7565b611bb4565b805180820160209081018051600280835293830194830194909420939052825460408051601f6000196101006001861615020190931694909404918201839004830284018301905280835283918301828280156103b75780601f1061038c576101008083540402835291602001916103b7565b820191906000526020600020905b81548152906001019060200180831161039a57829003601f168201915b50505050600183810154600280860154600387015460048801805460408051602061010099841615999099026000190190921695909504601f810188900488028201880190955284815297986001600160a01b03958616989590931696509094919392909183018282801561046d5780601f106104425761010080835404028352916020019161046d565b820191906000526020600020905b81548152906001019060200180831161045057829003601f168201915b5050506005909301549192505060ff1686565b6060600482604051610492919061240e565b9081526020016040518091039020805480602002602001604051908101604052809291908181526020016000905b828210156105545760008481526020908190206040805160a0810182526005860290920180546001600160a01b03908116845260018083015490911694840194909452600281015491830191909152600381015491929091606084019160ff9091169081111561052c57fe5b600181111561053757fe5b8152602001600482015481525050815260200190600101906104c0565b5050505090505b919050565b3373614d7c541d980da6972b976cc13cb0f07651b7e8141561066a576001600160a01b03821660009081526001602052604090206002015460ff1661066a57604080516060810182526001600160a01b0384811680835260208084018681526001858701819052600093845280835295909220845181546001600160a01b03191694169390931783559051805193949293610602938501929190910190611c7c565b50604091909101516002909101805460ff1916911515919091179055600680546001810182556000919091527ff652222313e28459528d920b65115c16c04f3efc82aaedc97be59f3f377c0d3f0180546001600160a01b0319166001600160a01b0384161790555b5050565b3360009081526003602090815260408083208054825181850281018501909352808352606094859484015b828210156107445760008481526020908190208301805460408051601f60026000196101006001871615020190941693909304928301859004850281018501909152818152928301828280156107305780601f1061070557610100808354040283529160200191610730565b820191906000526020600020905b81548152906001019060200180831161071357829003601f168201915b505050505081526020019060010190610699565b5050505090506060815160405190808252806020026020018201604052801561078757816020015b610774611cfa565b81526020019060019003908161076c5790505b50905060005b82518110156109545760028382815181106107a457fe5b60200260200101516040516107b9919061240e565b9081526040805160209281900383018120805460026001821615610100026000190190911604601f8101859004909402820160e090810190935260c082018481529193909284929184918401828280156108545780601f1061082957610100808354040283529160200191610854565b820191906000526020600020905b81548152906001019060200180831161083757829003601f168201915b50505091835250506001828101546001600160a01b039081166020808501919091526002808601549092166040808601919091526003860154606086015260048601805482516101009682161596909602600019011693909304601f8101839004830285018301909152808452608090940193908301828280156109195780601f106108ee57610100808354040283529160200191610919565b820191906000526020600020905b8154815290600101906020018083116108fc57829003601f168201915b50505091835250506005919091015460ff161515602090910152825183908390811061094157fe5b602090810291909101015260010161078d565b509150505b90565b600060208181529181526040908190208054600180830180548551600261010094831615949094026000190190911692909204601f81018790048702830187019095528482526001600160a01b039092169492939092830182828015610a035780601f106109d857610100808354040283529160200191610a03565b820191906000526020600020905b8154815290600101906020018083116109e657829003601f168201915b5050506002909301549192505060ff1683565b60606001600160a01b03821673614d7c541d980da6972b976cc13cb0f07651b7e81415610a5f575060408051808201909152600581526420b236b4b760d91b602082015261055b565b6001600160a01b03821660009081526020819052604090206002015460ff1615610aa657506040805180820190915260068152652330b936b2b960d11b602082015261055b565b6001600160a01b03821660009081526001602052604090206002015460ff1615610af2575060408051808201909152600b81526a2234b9ba3934b13aba37b960a91b602082015261055b565b5050604080518082019091526009815268416e6f6e796d6f757360b81b602082015290565b81516020818401810180516004825292820191850191909120919052805482908110610b3f57fe5b6000918252602090912060059091020180546001820154600283015460038401546004909401546001600160a01b0393841696509290911693509160ff169085565b610b89611cfa565b610b91611cfa565b600283604051610ba1919061240e565b9081526040805160209281900383018120805460026001821615610100026000190190911604601f8101859004909402820160e090810190935260c08201848152919390928492918491840182828015610c3c5780601f10610c1157610100808354040283529160200191610c3c565b820191906000526020600020905b815481529060010190602001808311610c1f57829003601f168201915b50505091835250506001828101546001600160a01b039081166020808501919091526002808601549092166040808601919091526003860154606086015260048601805482516101009682161596909602600019011693909304601f810183900483028501830190915280845260809094019390830182828015610d015780601f10610cd657610100808354040283529160200191610d01565b820191906000526020600020905b815481529060010190602001808311610ce457829003601f168201915b50505091835250506005919091015460ff1615156020909101529392505050565b60068181548110610d2f57fe5b6000918252602090912001546001600160a01b0316905081565b606080600580549050604051908082528060200260200182016040528015610d8b57816020015b610d78611d2e565b815260200190600190039081610d705790505b50905060005b600554811015610eae5760008060058381548110610dab57fe5b60009182526020808320909101546001600160a01b039081168452838201949094526040928301909120825160608101845281549094168452600181810180548551601f600260001995841615610100029590950190921693909304908101859004850283018501909552848252919385840193919291830182828015610e735780601f10610e4857610100808354040283529160200191610e73565b820191906000526020600020905b815481529060010190602001808311610e5657829003601f168201915b50505091835250506002919091015460ff1615156020909101528251839083908110610e9b57fe5b6020908102919091010152600101610d91565b50905090565b3373614d7c541d980da6972b976cc13cb0f07651b7e8141561066a576001600160a01b03821660009081526020819052604090206002015460ff1661066a57604080516060810182526001600160a01b0384811680835260208084018681526001858701819052600093845283835295909220845181546001600160a01b03191694169390931783559051805193949293610f56938501929190910190611c7c565b50604091909101516002909101805491151560ff19909216919091179055600580546001810182556000919091527f036b6384b5eca791c62761152d0c79bb0604c104a5fb6f4eb0703f3154bb3db00180546001600160a01b0384166001600160a01b03199091161790555050565b610fcd611d2e565b3360009081526020818152604091829020825160608101845281546001600160a01b03168152600180830180548651600261010094831615949094026000190190911692909204601f81018690048602830186019096528582529194929385810193919291908301828280156110845780601f1061105957610100808354040283529160200191611084565b820191906000526020600020905b81548152906001019060200180831161106757829003601f168201915b50505091835250506002919091015460ff1615156020909101526040810151909150156112c5576110b3611cfa565b848152606081018490526080810183905281516001600160a01b0390811660408084019190915283519091166020830152600160a08301525181906002906110fc90889061240e565b90815260200160405180910390206000820151816000019080519060200190611126929190611c7c565b506020828101516001830180546001600160a01b039283166001600160a01b031991821617909155604085015160028501805491909316911617905560608301516003830155608083015180516111839260048501920190611c7c565b5060a091909101516005909101805460ff19169115159190911790553360009081526003602090815260408220835181546001810180845592855293839020815192946111d594910192910190611c7c565b505080516040516004916111e89161240e565b90815260200160405180910390206040518060a00160405280336001600160a01b03168152602001336001600160a01b031681526020014381526020016000600181111561123257fe5b81524260209182015282546001818101808655600095865294839020845160059093020180546001600160a01b039384166001600160a01b0319918216178255938501518183018054919094169416939093179091556040830151600283015560608301516003830180549192909160ff19169083818111156112b157fe5b021790555060808201518160040155505050505b50505050565b73614d7c541d980da6972b976cc13cb0f07651b7e881565b6112eb611cfa565b6002836040516112fb919061240e565b9081526040805160209281900383018120805460026001821615610100026000190190911604601f8101859004909402820160e090810190935260c082018481529193909284929184918401828280156113965780601f1061136b57610100808354040283529160200191611396565b820191906000526020600020905b81548152906001019060200180831161137957829003601f168201915b50505091835250506001828101546001600160a01b039081166020808501919091526002808601549092166040808601919091526003860154606086015260048601805482516101009682161596909602600019011693909304601f81018390048302850183019091528084526080909401939083018282801561145b5780601f106114305761010080835404028352916020019161145b565b820191906000526020600020905b81548152906001019060200180831161143e57829003601f168201915b50505091835250506005919091015460ff16151560209091015260a08101519091508015611495575060208101516001600160a01b031633145b15611808576001600160a01b03821660208083019190915233600090815260038252604080822080548251818602810186019093528083526060949293919290919084015b828210156115855760008481526020908190208301805460408051601f60026000196101006001871615020190941693909304928301859004850281018501909152818152928301828280156115715780601f1061154657610100808354040283529160200191611571565b820191906000526020600020905b81548152906001019060200180831161155457829003601f168201915b5050505050815260200190600101906114da565b509293506000925050505b81518110156116b957846040516020016115aa919061240e565b604051602081830303815290604052805190602001208282815181106115cc57fe5b60200260200101516040516020016115e4919061240e565b604051602081830303815290604052805190602001201415611665577fb24bd07dfaed88b178ad6e1fc7116b2f5383fdd52ad2ba16a9d5807eacac3fd982828151811061162d57fe5b60200260200101518660405161164492919061255e565b60405180910390a181818151811061165857fe5b6020026020010160608152505b7ff33752e84ce5b812f4d399f9b9c433e9673c85a47b9623095cd5a184fde4be8782828151811061169257fe5b6020026020010151866040516116a992919061255e565b60405180910390a1600101611590565b5033600090815260036020908152604090912082516116da92840190611d5a565b506001600160a01b0383166000908152600360209081526040822080546001810180835591845292829020875191936117199391019190880190611c7c565b5050815160405160049161172c9161240e565b90815260200160405180910390206040518060a00160405280336001600160a01b03168152602001856001600160a01b0316815260200143815260200160018081111561177557fe5b81524260209182015282546001818101808655600095865294839020845160059093020180546001600160a01b039384166001600160a01b0319918216178255938501518183018054919094169416939093179091556040830151600283015560608301516003830180549192909160ff19169083818111156117f457fe5b021790555060808201518160040155505050505b505050565b60608060068054905060405190808252806020026020018201604052801561184f57816020015b61183c611d2e565b8152602001906001900390816118345790505b50905060005b600654811015610eae57600160006006838154811061187057fe5b60009182526020808320909101546001600160a01b039081168452838201949094526040928301909120825160608101845281549094168452600181810180548551601f6002600019958416156101000295909501909216939093049081018590048502830185019095528482529193858401939192918301828280156119385780601f1061190d57610100808354040283529160200191611938565b820191906000526020600020905b81548152906001019060200180831161191b57829003601f168201915b50505091835250506002919091015460ff161515602090910152825183908390811061196057fe5b6020908102919091010152600101611855565b6001600160a01b03811660009081526001602052604090206002015460609060ff1615611a44576001600160a01b038216600090815260016020818152604092839020820180548451600294821615610100026000190190911693909304601f8101839004830284018301909452838352919290830182828015611a385780601f10611a0d57610100808354040283529160200191611a38565b820191906000526020600020905b815481529060010190602001808311611a1b57829003601f168201915b5050505050905061055b565b5050604080518082019091526015815274111a5cdd1c9a589d5d1bdc881b9bdd08199bdd5b99605a1b602082015290565b60058181548110610d2f57fe5b600160208181526000928352604092839020805481840180548651600261010097831615979097026000190190911695909504601f81018590048502860185019096528585526001600160a01b0390911694919392909190830182828015610a035780601f106109d857610100808354040283529160200191610a03565b60036020528160005260406000208181548110611b1957fe5b600091825260209182902001805460408051601f60026000196101006001871615020190941693909304928301859004850281018501909152818152945090925090830182828015611bac5780601f10611b8157610100808354040283529160200191611bac565b820191906000526020600020905b815481529060010190602001808311611b8f57829003601f168201915b505050505081565b6001600160a01b03811660009081526020819052604090206002015460609060ff1615611c50576001600160a01b03821660009081526020818152604091829020600190810180548451600293821615610100026000190190911692909204601f810184900484028301840190945283825290929091830182828015611a385780601f10611a0d57610100808354040283529160200191611a38565b505060408051808201909152601081526f11985c9b595c881b9bdd08199bdd5b9960821b602082015290565b828054600181600116156101000203166002900490600052602060002090601f016020900481019282601f10611cbd57805160ff1916838001178555611cea565b82800160010185558215611cea579182015b82811115611cea578251825591602001919060010190611ccf565b50611cf6929150611db3565b5090565b6040805160c0810182526060808252600060208301819052928201839052808201839052608082015260a081019190915290565b604051806060016040528060006001600160a01b03168152602001606081526020016000151581525090565b828054828255906000526020600020908101928215611da7579160200282015b82811115611da75782518051611d97918491602090910190611c7c565b5091602001919060010190611d7a565b50611cf6929150611dcd565b61095991905b80821115611cf65760008155600101611db9565b61095991905b80821115611cf6576000611de78282611df0565b50600101611dd3565b50805460018160011615610100020316600290046000825580601f10611e165750611e34565b601f016020900490600052602060002090810190611e349190611db3565b50565b8035611e4281612673565b92915050565b600082601f830112611e5957600080fd5b8135611e6c611e67826125bb565b612594565b91508082526020830160208301858383011115611e8857600080fd5b611e93838284612627565b50505092915050565b8035611e4281612687565b600060208284031215611eb957600080fd5b6000611ec58484611e37565b949350505050565b60008060408385031215611ee057600080fd5b6000611eec8585611e37565b925050602083013567ffffffffffffffff811115611f0957600080fd5b611f1585828601611e48565b9150509250929050565b60008060408385031215611f3257600080fd5b6000611f3e8585611e37565b9250506020611f1585828601611e9c565b600060208284031215611f6157600080fd5b813567ffffffffffffffff811115611f7857600080fd5b611ec584828501611e48565b60008060408385031215611f9757600080fd5b823567ffffffffffffffff811115611fae57600080fd5b611fba85828601611e48565b9250506020611f1585828601611e37565b600080600060608486031215611fe057600080fd5b833567ffffffffffffffff811115611ff757600080fd5b61200386828701611e48565b935050602061201486828701611e9c565b925050604084013567ffffffffffffffff81111561203157600080fd5b61203d86828701611e48565b9150509250925092565b6000806040838503121561205a57600080fd5b823567ffffffffffffffff81111561207157600080fd5b611f3e85828601611e48565b60006020828403121561208f57600080fd5b6000611ec58484611e9c565b60006120a783836122df565b9392505050565b60006120ba8383612328565b505060a00190565b60006120a78383612385565b6120d7816125f6565b82525050565b60006120e8826125e9565b6120f281856125ed565b935083602082028501612104856125e3565b8060005b8581101561213e5784840389528151612121858261209b565b945061212c836125e3565b60209a909a0199925050600101612108565b5091979650505050505050565b6000612156826125e9565b61216081856125ed565b935083602082028501612172856125e3565b8060005b8581101561213e578484038952815161218f858261209b565b945061219a836125e3565b60209a909a0199925050600101612176565b60006121b7826125e9565b6121c181856125ed565b93506121cc836125e3565b8060005b838110156121fa5781516121e488826120ae565b97506121ef836125e3565b9250506001016121d0565b509495945050505050565b6000612210826125e9565b61221a81856125ed565b93508360208202850161222c856125e3565b8060005b8581101561213e578484038952815161224985826120c2565b9450612254836125e3565b60209a909a0199925050600101612230565b6120d781612601565b6120d78161261c565b6000612283826125e9565b61228d81856125ed565b935061229d818560208601612633565b6122a68161265f565b9093019392505050565b60006122bb826125e9565b6122c5818561055b565b93506122d5818560208601612633565b9290920192915050565b805160009060608401906122f385826120ce565b506020830151848203602086015261230b8282612278565b91505060408301516123206040860182612266565b509392505050565b805160a083019061233984826120ce565b50602082015161234c60208501826120ce565b50604082015161235f6040850182612405565b506060820151612372606085018261226f565b5060808201516112c56080850182612405565b805160c08084526000919084019061239d8282612278565b91505060208301516123b260208601826120ce565b5060408301516123c560408601826120ce565b5060608301516123d86060860182612405565b50608083015184820360808601526123f08282612278565b91505060a083015161232060a0860182612266565b6120d781610959565b60006120a782846122b0565b60208101611e4282846120ce565b60a0810161243682886120ce565b61244360208301876120ce565b6124506040830186612405565b61245d606083018561226f565b61246a6080830184612405565b9695505050505050565b6060810161248282866120ce565b81810360208301526124948185612278565b9050611ec56040830184612266565b602080825281016120a781846120dd565b602080825281016120a7818461214b565b602080825281016120a781846121ac565b602080825281016120a78184612205565b602080825281016120a78184612278565b60c080825281016125098189612278565b905061251860208301886120ce565b61252560408301876120ce565b6125326060830186612405565b81810360808301526125448185612278565b905061255360a0830184612266565b979650505050505050565b6040808252810161256f8185612278565b90508181036020830152611ec58184612278565b602080825281016120a78184612385565b60405181810167ffffffffffffffff811182821017156125b357600080fd5b604052919050565b600067ffffffffffffffff8211156125d257600080fd5b506020601f91909101601f19160190565b60200190565b5190565b90815260200190565b6000611e4282612610565b151590565b8061055b81612669565b6001600160a01b031690565b6000611e4282612606565b82818337506000910152565b60005b8381101561264e578181015183820152602001612636565b838111156112c55750506000910152565b601f01601f191690565b60028110611e3457fe5b61267c816125f6565b8114611e3457600080fd5b61267c8161095956fea365627a7a723158205d7f5ed0d3731c94362c22b02a12d1846e161e2db736eaa4487630206036c0776c6578706572696d656e74616cf564736f6c63430005100040",
  "source": "pragma solidity >=0.4.24;\r\npragma experimental ABIEncoderV2;\r\n\r\nimport \"./Models.sol\";\r\n\r\ncontract SupplyChain {\r\n    event FarmerAdded(string indexed name);\r\n\r\n    mapping(address => Models.Farmer) public farmers;\r\n    mapping(address => Models.Distributor) public distributors;\r\n    mapping(string => Models.Product) public products;\r\n    mapping(address => string[]) public productOwners;\r\n    mapping(string => Models.ItemHistory[]) public histories;\r\n    address[] public farmersKey;\r\n    address[] public distributorsKey;\r\n\r\n    address public constant ownerAddress =\r\n        0x614D7C541d980DA6972b976Cc13cB0F07651B7e8;\r\n\r\n    function getRole(address account) public view returns (string memory) {\r\n        if (account == ownerAddress) return \"Admin\";\r\n        if (farmers[account].exist) return \"Farmer\";\r\n        if (distributors[account].exist) return \"Distributor\";\r\n        return \"Anonymous\";\r\n    }\r\n\r\n    function addFarmer(address account, string memory name) public {\r\n        if (msg.sender == ownerAddress) {\r\n            if (!farmers[account].exist) {\r\n                farmers[account] = Models.Farmer(account, name, true);\r\n                farmersKey.push(account);\r\n            }\r\n        }\r\n    }\r\n\r\n    function getFarmers() public view returns (Models.Farmer[] memory) {\r\n        Models.Farmer[] memory ret = new Models.Farmer[](farmersKey.length);\r\n        for (uint256 i = 0; i < farmersKey.length; i++) {\r\n            ret[i] = farmers[farmersKey[i]];\r\n        }\r\n        return ret;\r\n    }\r\n\r\n    function getFarmer(address account)\r\n        public\r\n        view\r\n        returns (string memory name)\r\n    {\r\n        if (farmers[account].exist) {\r\n            return farmers[account].name;\r\n        }\r\n        return \"Farmer not found\";\r\n    }\r\n\r\n    function addDistributor(address account, string memory name) public {\r\n        if (msg.sender == ownerAddress) {\r\n            if (!distributors[account].exist) {\r\n                distributors[account] = Models.Distributor(account, name, true);\r\n                distributorsKey.push(account);\r\n            }\r\n        }\r\n    }\r\n\r\n    function getDistributors()\r\n        public\r\n        view\r\n        returns (Models.Distributor[] memory)\r\n    {\r\n        Models.Distributor[] memory ret = new Models.Distributor[](\r\n            distributorsKey.length\r\n        );\r\n        for (uint256 i = 0; i < distributorsKey.length; i++) {\r\n            ret[i] = distributors[distributorsKey[i]];\r\n        }\r\n        return ret;\r\n    }\r\n\r\n    function getDistributor(address account)\r\n        public\r\n        view\r\n        returns (string memory name)\r\n    {\r\n        if (distributors[account].exist) {\r\n            return distributors[account].name;\r\n        }\r\n        return \"Distributor not found\";\r\n    }\r\n\r\n    function getOwnerProducts() public view returns (Models.Product[] memory) {\r\n        string[] memory currentFarmerProduct = productOwners[msg.sender];\r\n        Models.Product[] memory ret = new Models.Product[](\r\n            currentFarmerProduct.length\r\n        );\r\n        for (uint256 i = 0; i < currentFarmerProduct.length; i++) {\r\n            ret[i] = products[currentFarmerProduct[i]];\r\n        }\r\n        return ret;\r\n    }\r\n\r\n    function getProduct(string memory sku)\r\n        public\r\n        view\r\n        returns (Models.Product memory)\r\n    {\r\n        Models.Product memory product = products[sku];\r\n        return product;\r\n    }\r\n\r\n    function addProduct(\r\n        string memory sku,\r\n        uint256 price,\r\n        string memory productName\r\n    ) public {\r\n        Models.Farmer memory farmer;\r\n        farmer = farmers[msg.sender];\r\n        if (farmer.exist) {\r\n            Models.Product memory product;\r\n            product.sku = sku;\r\n            product.price = price;\r\n            product.productName = productName;\r\n            product.createdBy = farmer.ownerAddress;\r\n            product.currentOwner = farmer.ownerAddress;\r\n            product.exist = true;\r\n            products[product.sku] = product;\r\n            productOwners[msg.sender].push(product.sku);\r\n            histories[product.sku].push(\r\n                Models.ItemHistory(\r\n                    msg.sender,\r\n                    msg.sender,\r\n                    block.number,\r\n                    Models.Action.CreateProduct,\r\n                    block.timestamp\r\n                )\r\n            );\r\n        }\r\n    }\r\n\r\n    event DebugEvent(string sku, string sku2);\r\n    event EqualEvent(string sku, string sku2);\r\n\r\n    function transferProduct(string memory sku, address toAddress) public {\r\n        Models.Product memory product = products[sku];\r\n        if (product.exist && product.currentOwner == msg.sender) {\r\n            product.currentOwner = toAddress;\r\n            string[] memory currentOwnerProducts = productOwners[msg.sender];\r\n            for (uint256 i = 0; i < currentOwnerProducts.length; i++) {\r\n                if (\r\n                    keccak256(abi.encodePacked(currentOwnerProducts[i])) ==\r\n                    keccak256(abi.encodePacked(sku))\r\n                ) {\r\n                    emit EqualEvent(currentOwnerProducts[i], sku);\r\n                    delete currentOwnerProducts[i];\r\n                }\r\n                emit DebugEvent(currentOwnerProducts[i], sku);\r\n            }\r\n            productOwners[msg.sender] = currentOwnerProducts;\r\n            productOwners[toAddress].push(sku);\r\n            histories[product.sku].push(\r\n                Models.ItemHistory(\r\n                    msg.sender,\r\n                    toAddress,\r\n                    block.number,\r\n                    Models.Action.TransferProduct,\r\n                    block.timestamp\r\n                )\r\n            );\r\n        }\r\n    }\r\n\r\n    function getItemHistory(string memory sku)\r\n        public\r\n        view\r\n        returns (Models.ItemHistory[] memory)\r\n    {\r\n        return histories[sku];\r\n    }\r\n}\r\n",
  "sourcePath": "E:\\Projects\\SupplyChain\\contracts\\SupplyChain.sol",
  "compiler": {
    "name": "solc",
    "version": "0.5.16+commit.9c3226ce.Emscripten.clang"
  },
  "schemaVersion": "3.4.6",
  "updatedAt": "2022-03-18T10:51:34.093Z",
  "networkType": "ethereum",
  "devdoc": {
    "methods": {}
  },
  "userdoc": {
    "methods": {}
  }
}