{
  "contractName": "SupplyChain",
  "abi": [
    {
      "anonymous": false,
      "inputs": [
        {
          "indexed": true,
          "internalType": "string",
          "name": "name",
          "type": "string"
        }
      ],
      "name": "FarmerAdded",
      "type": "event"
    },
    {
      "constant": true,
      "inputs": [
        {
          "internalType": "address",
          "name": "",
          "type": "address"
        }
      ],
      "name": "distributors",
      "outputs": [
        {
          "internalType": "address",
          "name": "ownerAddress",
          "type": "address"
        },
        {
          "internalType": "string",
          "name": "name",
          "type": "string"
        },
        {
          "internalType": "bool",
          "name": "exist",
          "type": "bool"
        }
      ],
      "payable": false,
      "stateMutability": "view",
      "type": "function"
    },
    {
      "constant": true,
      "inputs": [
        {
          "internalType": "uint256",
          "name": "",
          "type": "uint256"
        }
      ],
      "name": "distributorsKey",
      "outputs": [
        {
          "internalType": "address",
          "name": "",
          "type": "address"
        }
      ],
      "payable": false,
      "stateMutability": "view",
      "type": "function"
    },
    {
      "constant": true,
      "inputs": [
        {
          "internalType": "address",
          "name": "",
          "type": "address"
        }
      ],
      "name": "farmers",
      "outputs": [
        {
          "internalType": "address",
          "name": "ownerAddress",
          "type": "address"
        },
        {
          "internalType": "string",
          "name": "name",
          "type": "string"
        },
        {
          "internalType": "bool",
          "name": "exist",
          "type": "bool"
        }
      ],
      "payable": false,
      "stateMutability": "view",
      "type": "function"
    },
    {
      "constant": true,
      "inputs": [
        {
          "internalType": "uint256",
          "name": "",
          "type": "uint256"
        }
      ],
      "name": "farmersKey",
      "outputs": [
        {
          "internalType": "address",
          "name": "",
          "type": "address"
        }
      ],
      "payable": false,
      "stateMutability": "view",
      "type": "function"
    },
    {
      "constant": true,
      "inputs": [],
      "name": "ownerAddress",
      "outputs": [
        {
          "internalType": "address",
          "name": "",
          "type": "address"
        }
      ],
      "payable": false,
      "stateMutability": "view",
      "type": "function"
    },
    {
      "constant": true,
      "inputs": [
        {
          "internalType": "string",
          "name": "",
          "type": "string"
        }
      ],
      "name": "products",
      "outputs": [
        {
          "internalType": "string",
          "name": "sku",
          "type": "string"
        },
        {
          "internalType": "address",
          "name": "currentOwner",
          "type": "address"
        },
        {
          "internalType": "address",
          "name": "createdBy",
          "type": "address"
        },
        {
          "internalType": "uint256",
          "name": "price",
          "type": "uint256"
        },
        {
          "internalType": "string",
          "name": "productName",
          "type": "string"
        },
        {
          "internalType": "enum Models.State",
          "name": "status",
          "type": "uint8"
        },
        {
          "internalType": "bool",
          "name": "exist",
          "type": "bool"
        }
      ],
      "payable": false,
      "stateMutability": "view",
      "type": "function"
    },
    {
      "constant": true,
      "inputs": [
        {
          "internalType": "address",
          "name": "account",
          "type": "address"
        }
      ],
      "name": "getRole",
      "outputs": [
        {
          "internalType": "string",
          "name": "",
          "type": "string"
        }
      ],
      "payable": false,
      "stateMutability": "view",
      "type": "function"
    },
    {
      "constant": false,
      "inputs": [
        {
          "internalType": "address",
          "name": "account",
          "type": "address"
        },
        {
          "internalType": "string",
          "name": "name",
          "type": "string"
        }
      ],
      "name": "addFarmer",
      "outputs": [],
      "payable": false,
      "stateMutability": "nonpayable",
      "type": "function"
    },
    {
      "constant": true,
      "inputs": [],
      "name": "getFarmers",
      "outputs": [
        {
          "components": [
            {
              "internalType": "address",
              "name": "ownerAddress",
              "type": "address"
            },
            {
              "internalType": "string",
              "name": "name",
              "type": "string"
            },
            {
              "internalType": "bool",
              "name": "exist",
              "type": "bool"
            }
          ],
          "internalType": "struct Models.Farmer[]",
          "name": "",
          "type": "tuple[]"
        }
      ],
      "payable": false,
      "stateMutability": "view",
      "type": "function"
    },
    {
      "constant": true,
      "inputs": [
        {
          "internalType": "address",
          "name": "account",
          "type": "address"
        }
      ],
      "name": "getFarmer",
      "outputs": [
        {
          "internalType": "string",
          "name": "name",
          "type": "string"
        }
      ],
      "payable": false,
      "stateMutability": "view",
      "type": "function"
    },
    {
      "constant": false,
      "inputs": [
        {
          "internalType": "address",
          "name": "account",
          "type": "address"
        },
        {
          "internalType": "string",
          "name": "name",
          "type": "string"
        }
      ],
      "name": "addDistributor",
      "outputs": [],
      "payable": false,
      "stateMutability": "nonpayable",
      "type": "function"
    },
    {
      "constant": true,
      "inputs": [],
      "name": "getDistributors",
      "outputs": [
        {
          "components": [
            {
              "internalType": "address",
              "name": "ownerAddress",
              "type": "address"
            },
            {
              "internalType": "string",
              "name": "name",
              "type": "string"
            },
            {
              "internalType": "bool",
              "name": "exist",
              "type": "bool"
            }
          ],
          "internalType": "struct Models.Distributor[]",
          "name": "",
          "type": "tuple[]"
        }
      ],
      "payable": false,
      "stateMutability": "view",
      "type": "function"
    },
    {
      "constant": true,
      "inputs": [
        {
          "internalType": "address",
          "name": "account",
          "type": "address"
        }
      ],
      "name": "getDistributor",
      "outputs": [
        {
          "internalType": "string",
          "name": "name",
          "type": "string"
        }
      ],
      "payable": false,
      "stateMutability": "view",
      "type": "function"
    },
    {
      "constant": false,
      "inputs": [
        {
          "internalType": "string",
          "name": "sku",
          "type": "string"
        },
        {
          "internalType": "uint256",
          "name": "price",
          "type": "uint256"
        },
        {
          "internalType": "string",
          "name": "productName",
          "type": "string"
        }
      ],
      "name": "createProducts",
      "outputs": [],
      "payable": false,
      "stateMutability": "nonpayable",
      "type": "function"
    }
  ],
  "bytecode": "0x608060405234801561001057600080fd5b506115a0806100206000396000f3fe608060405234801561001057600080fd5b50600436106100ea5760003560e01c80638f84aa091161008c578063b00ce98911610066578063b00ce989146101ed578063cc64278414610200578063e7609c1614610213578063f8310e5c14610226576100ea565b80638f84aa09146101bd57806390e87986146101c5578063993df8c6146101da576100ea565b806344276733116100c857806344276733146101555780636878a76114610175578063789f8d401461019557806389671bf0146101aa576100ea565b80630186a423146100ef5780631214d2fd1461011e578063401b216814610133575b600080fd5b6101026100fd3660046110e3565b610239565b60405161011597969594939291906113ea565b60405180910390f35b61013161012c366004611091565b6103a9565b005b61014661014136600461106b565b6104b7565b60405161011593929190611388565b61016861016336600461106b565b610571565b60405161011591906113d9565b610188610183366004611194565b610674565b604051610115919061137a565b61019d61069b565b60405161011591906113c8565b6101316101b8366004611091565b610807565b610188610918565b6101cd610930565b60405161011591906113b7565b6101686101e836600461106b565b610a96565b6101886101fb366004611194565b610bae565b61014661020e36600461106b565b610bbb565b61016861022136600461106b565b610c39565b610131610234366004611118565b610cf0565b805180820160209081018051600280835293830194830194909420939052825460408051601f6000196101006001861615020190931694909404918201839004830284018301905280835283918301828280156102d75780601f106102ac576101008083540402835291602001916102d7565b820191906000526020600020905b8154815290600101906020018083116102ba57829003601f168201915b50505050600183810154600280860154600387015460048801805460408051602061010099841615999099026000190190921695909504601f810188900488028201880190955284815297986001600160a01b03958616989590931696509094919392909183018282801561038d5780601f106103625761010080835404028352916020019161038d565b820191906000526020600020905b81548152906001019060200180831161037057829003601f168201915b5050506005909301549192505060ff8082169161010090041687565b3373aef822a8199d240ce61e69ff45069b56a219b04214156104b3576001600160a01b03821660009081526001602052604090206002015460ff166104b357604080516060810182526001600160a01b0384811680835260208084018681526001858701819052600093845280835295909220845181546001600160a01b0319169416939093178355905180519394929361044b938501929190910190610efb565b50604091909101516002909101805460ff1916911515919091179055600480546001810182556000919091527f8a35acfbc15ff81a39ae7d344fd709f28e8600b4aa8c65c6b64bfe7fe36bd19b0180546001600160a01b0319166001600160a01b0384161790555b5050565b600060208181529181526040908190208054600180830180548551600261010094831615949094026000190190911692909204601f81018790048702830187019095528482526001600160a01b03909216949293909283018282801561055e5780601f106105335761010080835404028352916020019161055e565b820191906000526020600020905b81548152906001019060200180831161054157829003601f168201915b5050506002909301549192505060ff1683565b60606001600160a01b03821673aef822a8199d240ce61e69ff45069b56a219b04214156105ba575060408051808201909152600581526420b236b4b760d91b602082015261066f565b6001600160a01b03821660009081526020819052604090206002015460ff161561060157506040805180820190915260068152652330b936b2b960d11b602082015261066f565b6001600160a01b03821660009081526001602052604090206002015460ff161561064d575060408051808201909152600b81526a2234b9ba3934b13aba37b960a91b602082015261066f565b50604080518082019091526009815268416e6f6e796d6f757360b81b60208201525b919050565b6004818154811061068157fe5b6000918252602090912001546001600160a01b0316905081565b6060806003805490506040519080825280602002602001820160405280156106dd57816020015b6106ca610f79565b8152602001906001900390816106c25790505b50905060005b60035481101561080057600080600383815481106106fd57fe5b60009182526020808320909101546001600160a01b039081168452838201949094526040928301909120825160608101845281549094168452600181810180548551601f6002600019958416156101000295909501909216939093049081018590048502830185019095528482529193858401939192918301828280156107c55780601f1061079a576101008083540402835291602001916107c5565b820191906000526020600020905b8154815290600101906020018083116107a857829003601f168201915b50505091835250506002919091015460ff16151560209091015282518390839081106107ed57fe5b60209081029190910101526001016106e3565b5090505b90565b3373aef822a8199d240ce61e69ff45069b56a219b04214156104b3576001600160a01b03821660009081526020819052604090206002015460ff166104b357604080516060810182526001600160a01b0384811680835260208084018681526001858701819052600093845283835295909220845181546001600160a01b031916941693909317835590518051939492936108a9938501929190910190610efb565b50604091909101516002909101805491151560ff19909216919091179055600380546001810182556000919091527fc2575a0e9e593c00f959f8c92f12db2869c3395a3b0502d05e2516446f71f85b0180546001600160a01b0384166001600160a01b03199091161790555050565b73aef822a8199d240ce61e69ff45069b56a219b04281565b60608060048054905060405190808252806020026020018201604052801561097257816020015b61095f610f79565b8152602001906001900390816109575790505b50905060005b60045481101561080057600160006004838154811061099357fe5b60009182526020808320909101546001600160a01b039081168452838201949094526040928301909120825160608101845281549094168452600181810180548551601f600260001995841615610100029590950190921693909304908101859004850283018501909552848252919385840193919291830182828015610a5b5780601f10610a3057610100808354040283529160200191610a5b565b820191906000526020600020905b815481529060010190602001808311610a3e57829003601f168201915b50505091835250506002919091015460ff1615156020909101528251839083908110610a8357fe5b6020908102919091010152600101610978565b60603373aef822a8199d240ce61e69ff45069b56a219b0421415610b82576001600160a01b03821660009081526001602052604090206002015460ff1615610b82576001600160a01b038216600090815260016020818152604092839020820180548451600294821615610100026000190190911693909304601f8101839004830284018301909452838352919290830182828015610b765780601f10610b4b57610100808354040283529160200191610b76565b820191906000526020600020905b815481529060010190602001808311610b5957829003601f168201915b5050505050905061066f565b505060408051808201909152601081526f11985c9b595c881b9bdd08199bdd5b9960821b602082015290565b6003818154811061068157fe5b600160208181526000928352604092839020805481840180548651600261010097831615979097026000190190911695909504601f81018590048502860185019096528585526001600160a01b039091169491939290919083018282801561055e5780601f106105335761010080835404028352916020019161055e565b60603373aef822a8199d240ce61e69ff45069b56a219b0421415610b82576001600160a01b03821660009081526020819052604090206002015460ff1615610b82576001600160a01b03821660009081526020818152604091829020600190810180548451600293821615610100026000190190911692909204601f810184900484028301840190945283825290929091830182828015610b765780601f10610b4b57610100808354040283529160200191610b76565b610cf8610f79565b3360009081526020818152604091829020825160608101845281546001600160a01b03168152600180830180548651600261010094831615949094026000190190911692909204601f8101869004860283018601909652858252919492938581019391929190830182828015610daf5780601f10610d8457610100808354040283529160200191610daf565b820191906000526020600020905b815481529060010190602001808311610d9257829003601f168201915b50505091835250506002919091015460ff161515602090910152604081015190915015610ef557610dde610fa5565b848152606081018490526080810183905281516001600160a01b0390811660408084019190915283519091166020830152600160c0830152518190600290610e2790889061136e565b90815260200160405180910390206000820151816000019080519060200190610e51929190610efb565b506020828101516001830180546001600160a01b039283166001600160a01b03199182161790915560408501516002850180549190931691161790556060830151600383015560808301518051610eae9260048501920190610efb565b5060a082015160058201805460ff19166001836003811115610ecc57fe5b021790555060c09190910151600590910180549115156101000261ff0019909216919091179055505b50505050565b828054600181600116156101000203166002900490600052602060002090601f016020900481019282601f10610f3c57805160ff1916838001178555610f69565b82800160010185558215610f69579182015b82811115610f69578251825591602001919060010190610f4e565b50610f75929150610fe1565b5090565b604051806060016040528060006001600160a01b03168152602001606081526020016000151581525090565b6040805160e081018252606080825260006020830181905292820183905280820183905260808201529060a08201908152600060209091015290565b61080491905b80821115610f755760008155600101610fe7565b803561100681611540565b92915050565b600082601f83011261101d57600080fd5b813561103061102b82611485565b61145e565b9150808252602083016020830185838301111561104c57600080fd5b6110578382846114f1565b50505092915050565b803561100681611554565b60006020828403121561107d57600080fd5b60006110898484610ffb565b949350505050565b600080604083850312156110a457600080fd5b60006110b08585610ffb565b925050602083013567ffffffffffffffff8111156110cd57600080fd5b6110d98582860161100c565b9150509250929050565b6000602082840312156110f557600080fd5b813567ffffffffffffffff81111561110c57600080fd5b6110898482850161100c565b60008060006060848603121561112d57600080fd5b833567ffffffffffffffff81111561114457600080fd5b6111508682870161100c565b935050602061116186828701611060565b925050604084013567ffffffffffffffff81111561117e57600080fd5b61118a8682870161100c565b9150509250925092565b6000602082840312156111a657600080fd5b60006110898484611060565b60006111be838361131c565b9392505050565b6111ce816114c0565b82525050565b60006111df826114b3565b6111e981856114b7565b9350836020820285016111fb856114ad565b8060005b85811015611235578484038952815161121885826111b2565b9450611223836114ad565b60209a909a01999250506001016111ff565b5091979650505050505050565b600061124d826114b3565b61125781856114b7565b935083602082028501611269856114ad565b8060005b85811015611235578484038952815161128685826111b2565b9450611291836114ad565b60209a909a019992505060010161126d565b6111ce816114cb565b6111ce816114e6565b60006112c0826114b3565b6112ca81856114b7565b93506112da8185602086016114fd565b6112e381611529565b9093019392505050565b60006112f8826114b3565b611302818561066f565b93506113128185602086016114fd565b9290920192915050565b8051600090606084019061133085826111c5565b506020830151848203602086015261134882826112b5565b915050604083015161135d60408601826112a3565b509392505050565b6111ce81610804565b60006111be82846112ed565b6020810161100682846111c5565b6060810161139682866111c5565b81810360208301526113a881856112b5565b905061108960408301846112a3565b602080825281016111be81846111d4565b602080825281016111be8184611242565b602080825281016111be81846112b5565b60e080825281016113fb818a6112b5565b905061140a60208301896111c5565b61141760408301886111c5565b6114246060830187611365565b818103608083015261143681866112b5565b905061144560a08301856112ac565b61145260c08301846112a3565b98975050505050505050565b60405181810167ffffffffffffffff8111828210171561147d57600080fd5b604052919050565b600067ffffffffffffffff82111561149c57600080fd5b506020601f91909101601f19160190565b60200190565b5190565b90815260200190565b6000611006826114da565b151590565b8061066f81611533565b6001600160a01b031690565b6000611006826114d0565b82818337506000910152565b60005b83811015611518578181015183820152602001611500565b83811115610ef55750506000910152565b601f01601f191690565b6004811061153d57fe5b50565b611549816114c0565b811461153d57600080fd5b6115498161080456fea365627a7a723158207f59b1e6aebaa2f0ec6ff3ed7b3b18ebb6e664790096517c57d77f06688112186c6578706572696d656e74616cf564736f6c63430005100040",
  "source": "pragma solidity >=0.4.24;\r\npragma experimental ABIEncoderV2;\r\n\r\nimport \"./Models.sol\";\r\n\r\ncontract SupplyChain {\r\n    event FarmerAdded(string indexed name);\r\n\r\n    mapping(address => Models.Farmer) public farmers;\r\n    mapping(address => Models.Distributor) public distributors;\r\n    mapping(string => Models.Product) public products;\r\n    address[] public farmersKey;\r\n    address[] public distributorsKey;\r\n\r\n    //address public constant ownerAddress = 0x435E41FA208CC37123f274b07F7E26b75262de4B;\r\n    address public constant ownerAddress =\r\n        0xaeF822a8199D240cE61e69ff45069B56a219B042;\r\n\r\n    function getRole(address account) public view returns (string memory) {\r\n        if (account == ownerAddress) return \"Admin\";\r\n        if (farmers[account].exist) return \"Farmer\";\r\n        if (distributors[account].exist) return \"Distributor\";\r\n        return \"Anonymous\";\r\n    }\r\n\r\n    function addFarmer(address account, string memory name) public {\r\n        if (msg.sender == ownerAddress) {\r\n            if (!farmers[account].exist) {\r\n                farmers[account] = Models.Farmer(account, name, true);\r\n                farmersKey.push(account);\r\n            }\r\n        }\r\n    }\r\n\r\n    function getFarmers() public view returns (Models.Farmer[] memory) {\r\n        Models.Farmer[] memory ret = new Models.Farmer[](farmersKey.length);\r\n        for (uint256 i = 0; i < farmersKey.length; i++) {\r\n            ret[i] = farmers[farmersKey[i]];\r\n        }\r\n        return ret;\r\n    }\r\n\r\n    function getFarmer(address account)\r\n        public\r\n        view\r\n        returns (string memory name)\r\n    {\r\n        if (msg.sender == ownerAddress) {\r\n            if (farmers[account].exist) {\r\n                return farmers[account].name;\r\n            }\r\n        }\r\n        return \"Farmer not found\";\r\n    }\r\n\r\n    function addDistributor(address account, string memory name) public {\r\n        if (msg.sender == ownerAddress) {\r\n            if (!distributors[account].exist) {\r\n                distributors[account] = Models.Distributor(account, name, true);\r\n                distributorsKey.push(account);\r\n            }\r\n        }\r\n    }\r\n\r\n    function getDistributors() public view returns (Models.Distributor[] memory) {\r\n        Models.Distributor[] memory ret = new Models.Distributor[](distributorsKey.length);\r\n        for (uint256 i = 0; i < distributorsKey.length; i++) {\r\n            ret[i] = distributors[distributorsKey[i]];\r\n        }\r\n        return ret;\r\n    }\r\n\r\n    function getDistributor(address account)\r\n        public\r\n        view\r\n        returns (string memory name)\r\n    {\r\n        if (msg.sender == ownerAddress) {\r\n            if (distributors[account].exist) {\r\n                return distributors[account].name;\r\n            }\r\n        }\r\n        return \"Farmer not found\";\r\n    }\r\n\r\n    function createProducts(\r\n        string memory sku,\r\n        uint256 price,\r\n        string memory productName\r\n    ) public {\r\n        Models.Farmer memory farmer;\r\n        farmer = farmers[msg.sender];\r\n        if (farmer.exist) {\r\n            Models.Product memory product;\r\n            product.sku = sku;\r\n            product.price = price;\r\n            product.productName = productName;\r\n            product.createdBy = farmer.ownerAddress;\r\n            product.currentOwner = farmer.ownerAddress;\r\n            product.exist = true;\r\n            products[product.sku] = product;\r\n        }\r\n    }\r\n}\r\n",
  "sourcePath": "E:\\Projects\\solidity-supply-chain\\contracts\\SupplyChain.sol",
  "compiler": {
    "name": "solc",
    "version": "0.5.16+commit.9c3226ce.Emscripten.clang"
  },
  "schemaVersion": "3.4.6",
  "updatedAt": "2022-03-17T17:06:16.556Z",
  "networkType": "ethereum",
  "devdoc": {
    "methods": {}
  },
  "userdoc": {
    "methods": {}
  }
}