{
  "contractName": "SupplyChain",
  "abi": [
    {
      "constant": true,
      "inputs": [],
      "name": "ownerAddress",
      "outputs": [
        {
          "name": "",
          "type": "address"
        }
      ],
      "payable": false,
      "stateMutability": "view",
      "type": "function"
    },
    {
      "constant": false,
      "inputs": [
        {
          "name": "account",
          "type": "address"
        },
        {
          "name": "name",
          "type": "string"
        }
      ],
      "name": "addFarmer",
      "outputs": [],
      "payable": false,
      "stateMutability": "nonpayable",
      "type": "function"
    },
    {
      "constant": false,
      "inputs": [
        {
          "name": "account",
          "type": "address"
        },
        {
          "name": "name",
          "type": "string"
        }
      ],
      "name": "addDistributors",
      "outputs": [],
      "payable": false,
      "stateMutability": "nonpayable",
      "type": "function"
    },
    {
      "constant": false,
      "inputs": [
        {
          "name": "sku",
          "type": "string"
        },
        {
          "name": "price",
          "type": "uint256"
        },
        {
          "name": "productName",
          "type": "string"
        }
      ],
      "name": "createProducts",
      "outputs": [],
      "payable": false,
      "stateMutability": "nonpayable",
      "type": "function"
    }
  ],
  "bytecode": "0x608060405234801561001057600080fd5b5061087b806100206000396000f3fe6080604052600436106100615763ffffffff7c01000000000000000000000000000000000000000000000000000000006000350416630b2f0175811461006657806389671bf01461012b5780638f84aa09146101ee578063f8310e5c1461021f575b600080fd5b34801561007257600080fd5b506101296004803603604081101561008957600080fd5b600160a060020a0382351691908101906040810160208201356401000000008111156100b457600080fd5b8201836020820111156100c657600080fd5b803590602001918460018302840111640100000000831117156100e857600080fd5b91908080601f016020809104026020016040519081016040528093929190818152602001838380828437600092019190915250929550610361945050505050565b005b34801561013757600080fd5b506101296004803603604081101561014e57600080fd5b600160a060020a03823516919081019060408101602082013564010000000081111561017957600080fd5b82018360208201111561018b57600080fd5b803590602001918460018302840111640100000000831117156101ad57600080fd5b91908080601f01602080910402602001604051908101604052809392919081815260200183838082843760009201919091525092955061042f945050505050565b3480156101fa57600080fd5b506102036104db565b60408051600160a060020a039092168252519081900360200190f35b34801561022b57600080fd5b506101296004803603606081101561024257600080fd5b81019060208101813564010000000081111561025d57600080fd5b82018360208201111561026f57600080fd5b8035906020019184600183028401116401000000008311171561029157600080fd5b91908080601f016020809104026020016040519081016040528093929190818152602001838380828437600092019190915250929584359590949093506040810192506020013590506401000000008111156102ec57600080fd5b8201836020820111156102fe57600080fd5b8035906020019184600183028401116401000000008311171561032057600080fd5b91908080601f0160208091040260200160405190810160405280939291908181526020018383808284376000920191909152509295506104f3945050505050565b3373e0f5206bbd039e7b0592d8918820024e2a7437b9141561042b57600160a060020a03821660009081526001602052604090206002015460ff16151561042b576103aa61074b565b602081810183815260016040808501829052600160a060020a038781168087526000908152838652919091208551815473ffffffffffffffffffffffffffffffffffffffff1916921691909117815591518051859461040d938501920190610778565b50604091909101516002909101805460ff1916911515919091179055505b5050565b3373e0f5206bbd039e7b0592d8918820024e2a7437b9141561042b57600160a060020a03821660009081526020819052604090206002015460ff16151561042b5761047861074b565b602081810183815260016040808501829052600160a060020a038781168087526000908152808652919091208551815473ffffffffffffffffffffffffffffffffffffffff1916921691909117815591518051859461040d938501920190610778565b73e0f5206bbd039e7b0592d8918820024e2a7437b981565b6104fb61074b565b336000908152602081815260409182902082516060810184528154600160a060020a03168152600180830180548651600261010094831615949094026000190190911692909204601f81018690048602830186019096528582529194929385810193919291908301828280156105b25780601f10610587576101008083540402835291602001916105b2565b820191906000526020600020905b81548152906001019060200180831161059557829003601f168201915b50505091835250506002919091015460ff161515602090910152604081015190915015610745576105e16107f6565b84815260608101849052608081018390528151600160a060020a039081166040808401919091528351909116602080840191909152600160c0840152905186518392600292899290918291908401908083835b602083106106535780518252601f199092019160209182019101610634565b51815160209384036101000a600019018019909216911617905292019485525060405193849003810190932084518051919461069494508593500190610778565b50602082810151600183018054600160a060020a0392831673ffffffffffffffffffffffffffffffffffffffff1991821617909155604085015160028501805491909316911617905560608301516003830155608083015180516106fe9260048501920190610778565b5060a082015160058201805460ff1916600183600381111561071c57fe5b021790555060c09190910151600590910180549115156101000261ff0019909216919091179055505b50505050565b6060604051908101604052806000600160a060020a03168152602001606081526020016000151581525090565b828054600181600116156101000203166002900490600052602060002090601f016020900481019282601f106107b957805160ff19168380011785556107e6565b828001600101855582156107e6579182015b828111156107e65782518255916020019190600101906107cb565b506107f2929150610832565b5090565b6040805160e081018252606080825260006020830181905292820183905280820183905260808201529060a08201908152600060209091015290565b61084c91905b808211156107f25760008155600101610838565b9056fea165627a7a7230582022e68fae996dcf9ef255b23cac678c5df98d930b8401700c553f768477227cdb0029",
  "source": "pragma solidity >=0.4.24;\r\n\r\nimport \"./Models.sol\";\r\n\r\ncontract SupplyChain {\r\n    mapping(address => Models.Farmer) farmers;\r\n    mapping(address => Models.Distributor) distributors;\r\n    mapping(string => Models.Product) products;\r\n\r\n    address public constant ownerAddress =\r\n        0xE0f5206BBD039e7b0592d8918820024e2a7437b9;\r\n\r\n    function addFarmer(address account, string memory name) public {\r\n        if (msg.sender == ownerAddress) {\r\n            if (!farmers[account].exist) {\r\n                Models.Farmer memory newEntry;\r\n                newEntry.name = name;\r\n                newEntry.exist = true;\r\n                newEntry.ownerAddress = account;\r\n                farmers[account] = newEntry;\r\n            }\r\n        }\r\n    }\r\n\r\n    function addDistributors(address account, string memory name) public {\r\n        if (msg.sender == ownerAddress) {\r\n            if (!distributors[account].exist) {\r\n                Models.Distributor memory newEntry;\r\n                newEntry.name = name;\r\n                newEntry.exist = true;\r\n                newEntry.ownerAddress = account;\r\n                distributors[account] = newEntry;\r\n            }\r\n        }\r\n    }\r\n\r\n    function createProducts(\r\n        string memory sku,\r\n        uint256 price,\r\n        string memory productName\r\n    ) public {\r\n        Models.Farmer memory farmer;\r\n        farmer = farmers[msg.sender];\r\n        if (farmer.exist) {\r\n            Models.Product memory product;\r\n            product.sku = sku;\r\n            product.price = price;\r\n            product.productName = productName;\r\n            product.createdBy = farmer.ownerAddress;\r\n            product.currentOwner = farmer.ownerAddress;\r\n            product.exist = true;\r\n            products[product.sku] = product;\r\n        }\r\n    }\r\n}\r\n",
  "sourcePath": "E:/Projects/SupplyChain/contracts/SupplyChain.sol",
  "compiler": {
    "name": "solc",
    "version": "0.5.0+commit.1d4f565a.Emscripten.clang"
  },
  "schemaVersion": "3.0.1",
  "updatedAt": "2022-03-16T10:58:54.498Z",
  "devdoc": {
    "methods": {}
  },
  "userdoc": {
    "methods": {}
  }
}